:100000001FC043C017C341C040C0CAC23EC03DC0AC
:100010003CC03BC03AC039C038C037C036C0000011
:100020000000370000000000380002020202020255
:10003000010204081020010300000400BF040C05A5
:1000400011241FBECFE5D2E0DEBFCDBF10E0A0E699
:10005000B0E0E2EAFDE002C005900D92A037B107E2
:10006000D9F720E0A0E7B0E001C01D92A739B207A0
:10007000E1F710E0CFE1D0E003C02197FE0153D5B6
:10008000CE31D107D1F7EDD280C6BACF0F93CF933F
:10009000DC01C62F8091800090918100A817B907DC
:1000A000D8F5E0918500EE23A9F0F0E0862F90E0EE
:1000B000BF01D6D4C92F842F90E0BF01D1D4492FDE
:1000C000822F90E0BF01CCD4292F802F90E0BF0178
:1000D000C7D4092F30918B00E0918600F091870002
:1000E0008091880038131BC0CD0163E070E0B8D464
:1000F0008E0F9F1FE0918800E80FF92FF11DC0833C
:10010000E0918900E80FF92FF11D408330918A00BA
:10011000830F911DFC012083CF910F910895CD0194
:10012000880F991F880F991F8E0F9F1FFC01E30FE7
:10013000F11D0083DFCF1F93CF93DF9311E0180FE2
:1001400020918500121789F1C0918600D091870017
:10015000215031F18F3FD1F430E050E040E06FEFBB
:100160007FEF80E090E0A1D4FE01409182005091A9
:100170008300CF018C1B9D0B84179507A0F4808111
:1001800090E0B9016DD490833196EFCF812F90E04C
:10019000982F88270197622F70E073D49B01E4CFDA
:1001A00030E020E0E1CF10938500DF91CF911F91E7
:1001B00008953FB7F89480917B0090917C00A091C6
:1001C0007D00B0917E0022B708B601FE05C02F3F2A
:1001D00019F00196A11DB11D3FBFBA2FA92F982F6D
:1001E0008827BC01CD01620F711D811D911D43E067
:1001F000660F771F881F991F4A95D1F708950F93AF
:100200001F93CF93DF9300D000D000D01F92CDB7C3
:10021000DEB78091860090918700892B09F488C011
:10022000C8DF00918C0010918D0020918E003091DC
:100230008F00601B710B820B930B6233710581057C
:10024000910570F3F89480918200909183009A83D5
:100250008983A0918600B0918700FD0131968C9131
:100260008F831B8298B380919200982B9E8398B3C2
:10027000809589238D838D818C838F8187FF02C038
:100280008E818C835E816D814F813C812B81898140
:100290009A8158BB262F38BB00C046FD252F68BB6E
:1002A00000C058BB362F28BB00C045FD352F68BBAA
:1002B00000C058BB262F38BB00C044FD252F68BBAB
:1002C00000C058BB362F28BB00C043FD352F68BB8C
:1002D00000C058BB262F38BB00C042FD252F68BB8D
:1002E00000C058BB362F28BB00C041FD352F68BB6E
:1002F00000C058BB262F38BB00C040FD252F68BB6F
:10030000019758BB362F28BB419147FD352F68BB5D
:1003100001F64F833C832B839A838983789449DF4A
:1003200060938C0070938D0080938E0090938F006B
:1003300027960FB6F894DEBF0FBECDBFDF91CF91E9
:100340001F910F910895CF92DF92EF92FF92CF937A
:10035000DF936B017C012DDFEB01C114D104E104BB
:10036000F10441F412C081E0C81AD108E108F10893
:10037000C851DC4F1EDF6C1B7D0B683E734068F379
:10038000C114D104E104F10471F7DF91CF91FF9022
:10039000EF90DF90CF900895EF92FF920F931F930D
:1003A000CF93DF93182F80916700C5DED0E0C0E0C7
:1003B000E12EF12C1B3018F5F701E052FE4F0994A5
:1003C0000AC00DC00FC012C014C024C026C02AC06D
:1003D0002BC02CC02DC00FEF20E040E00DC000E08E
:1003E00020E01DC000E020E04FEF1AC000E020E058
:1003F00002C000E02FEF4FEF60E0CE0147DE219614
:10040000CA30D105B9F6DF91CF911F910F91FF90BE
:10041000EF90F5CE00E02FEFE0CF00E02FEF40E0CF
:100420006FEFEBCF0FEFDCCF0FEFE1CF0FEFF3CF9D
:100430000FEF2FEFD9CF87FF09C08F7769F1813098
:1004400069F1823069F1833069F18FEF90E0FC014E
:10045000EA5CFF4F3491FC01E05DFF4F2491FC0109
:10046000E65DFF4FE491EE23B1F0332329F0313004
:10047000D9F48AB58F778ABDF0E0EE0FFF1FEC5DEF
:10048000FF4FA591B4918FB7F8949C91E22FE0951E
:10049000E923EC938FBF089585E0D8CF82E0D6CFD3
:1004A00084E0D4CF83E0D2CF323019F48AB58F7D87
:1004B000E2CF333021F480B78F7D80BFDDCF343081
:1004C000D9F68CB58F7D8CBDD7CFCF93DF9390E0DD
:1004D000FC01E05DFF4F2491865D9F4FFC018491FC
:1004E0008823D1F090E0880F991FFC01E25EFF4F56
:1004F000A591B491FC01EC5DFF4FC591D4916111C0
:100500000EC09FB7F8948C91E22FE0958E238C93C8
:100510002881E223E8839FBFDF91CF9108958FB7B1
:10052000F894EC91E22BEC938FBFF6CFEF92FF9211
:100530000F931F93CF93DF937C018C01D0E0C0E039
:10054000CE0178D2F80181938F012196C530D10573
:10055000B9F7C701DF91CF911F910F91FF90EF90F5
:100560000895FF920F931F93CF93DF9305E610E05A
:10057000D0E0C0E0F801F1908F01CE015BD2F81617
:1005800019F06F2DCE015ED22196C530D10591F7BD
:1005900085E690E0DF91CF911F910F91FF90089534
:1005A0001F920F920FB60F9211242F933F938F93A8
:1005B0009F93AF93BF938091770090917800A09123
:1005C0007900B0917A003091760026E0230F2D3724
:1005D00068F129E8230F0396A11DB11D2093760031
:1005E0008093770090937800A0937900B0937A007D
:1005F00080917B0090917C00A0917D00B0917E0065
:100600000196A11DB11D80937B0090937C00A09367
:100610007D00B0937E00BF91AF919F918F913F91EC
:100620002F910F900FBE0F901F9018950296A11D4D
:10063000B11DD4CF1F920F920FB60F9211248F933A
:10064000B19B09C081E0809375008F910F900FBE20
:100650000F901F901895B29BF8CF81E080937400A3
:10066000F4CF83E08ABD83BF789489B7826089BF65
:1006700080E48CBD8FEF8DBD87EC80BF86E886B9A6
:10068000BC9AC498B998BA98CAE0D0E0B49991C01D
:10069000C49A6AEF70E080E090E055DE2197B1F7F0
:1006A000109265001092660089E190E090936800D6
:1006B0008093670081E08093690053DFC498809144
:1006C000840087FD05C061E000DF80918400B3DE17
:1006D00081E080937F00409182005091830070E020
:1006E00060E0809186009091870048D380916700F8
:1006F00022DD85DDEE24E394FF24F394C4E1D0E011
:10070000DD24D3940FEF10E08BB780628BBFA99AE2
:10071000AA9A379885B7877E806185BF85B7806242
:1007200085BF78948895F894AA98A99885B78F7D05
:1007300085BF379A789485E690E0F8DE8091750061
:10074000882309F4D2C09FB7F89440917700509164
:1007500078006091790070917A009FBF409370009B
:10076000509371006093720070937300B19B23C02B
:100770009FB7F8944091770050917800609179008C
:1007800070917A009FBF8090700090907100A0904F
:100790007200B0907300481959096A097B09493EF3
:1007A00053406105710510F39091650091110BC0E4
:1007B00003C0C4986ECF80E0909165009E25909311
:1007C00065008823E1F080916500882309F480C0EA
:1007D00080916900813009F048C08FEF80936900F3
:1007E000809167009091680020916900213009F0A4
:1007F0003FC08F3F910544F08FEF80936900809157
:100800006500882309F464C0C49A80916600C4DD41
:10081000B19B6AC020916900809167009091680047
:10082000820F911D27FD9A95909368008093670031
:100830008F3F910514F18AE07EDCE1DC62E370E039
:1008400080E090E080DD10936800009367008FEFF8
:1008500072DCD5DC8FEF80936900B19B0EC06AE03B
:1008600070E080E090E06FDDF8CFF0926900B8CFE3
:10087000459754F6F0926900C2CF8091670090913D
:1008800068004597CCF488EC56DCB9DC62E370E094
:1008900080E090E058DDD0936800C093670084E169
:1008A0004ADCADDCD0926900B19B06C06AE070E022
:1008B00080E090E048DDF8CF809167003CDC9FDC71
:1008C000B19BA6CF6AE070E080E090E03CDDA0CF75
:1008D000C498409182005091830070E060E0809164
:1008E0008600909187004AD28ADC80917400882328
:1008F00009F1809165008823E9F0B29B05C06AE0A8
:1009000070E080E090E01FDDB29B14C08091660033
:100910008F5F8C3060F480936600809166003CDDD0
:10092000B29BF2CF64EF71E080E090E0ECCF1092E8
:100930006600F3CF80E690E0F9DD90916000809151
:100940006500981316C0909161008091660098131D
:1009500010C02091620030916300809167009091F7
:1009600068002817390729F4909164008091690084
:100970009813F7DD1092750010927400C5CE109296
:100980007F001092850010928C0010928D001092C2
:100990008E0010928F0083E080938B0081E0809323
:1009A00088001092890082E080938A0088E290E0BB
:1009B0009093830080938200BCD0909387008093B3
:1009C0008600009701F128E2FC0111922A95E9F7CF
:1009D0008AE090E0909381008093800010928400E0
:1009E00080917F00882329F061E080E06EDD80E067
:1009F00022DD88E390E0909391008093900081E065
:100A000080939200089510928300109282001092B9
:100A1000810010928000E2CF809186009091870043
:100A2000009709F022D18091840087FD02C060E028
:100A30004CCD0895E199FECF9FBB8EBBE09A9927DC
:100A40008DB30895262FE199FECF1CBA9FBB8EBBB4
:100A50002DBB0FB6F894E29AE19A0FBE0196089565
:100A60000024552704C0080E591F880F991F0097AE
:100A700029F076956795B8F37105B9F7802D952F14
:100A80000895AA1BBB1B51E107C0AA1FBB1FA617D5
:100A9000B70710F0A61BB70B881F991F5A95A9F727
:100AA00080959095BC01CD010895052E97FB16F415
:100AB00000940FD057FD05D014D007FC02D046F4A7
:100AC00008C050954095309521953F4F4F4F5F4F4F
:100AD000089590958095709561957F4F8F4F9F4FAA
:100AE0000895A1E21A2EAA1BBB1BFD010DC0AA1F6F
:100AF000BB1FEE1FFF1FA217B307E407F50720F087
:100B0000A21BB30BE40BF50B661F771F881F991F01
:100B10001A9469F760957095809590959B01AC014A
:100B2000BD01CF010895EE0FFF1F0590F491E02D58
:100B300009940F931F93CF93DF938230910510F4A4
:100B400082E090E0E0919500F091960030E020E0A6
:100B5000B0E0A0E0309799F42115310509F44AC0BE
:100B6000281B390B24303105D8F58A819B8161150A
:100B7000710589F1FB0193838283FE0111C04081DD
:100B800051810281138148175907E0F0481759072E
:100B900099F4109761F012960C93129713961C9388
:100BA0003296CF01DF91CF911F910F91089500935D
:100BB000950010939600F4CF2115310551F042179E
:100BC000530738F0A901DB019A01BD01DF01F801EB
:100BD000C1CFEF01F9CF9093960080939500CDCFD0
:100BE000FE01E20FF31F8193919322503109398363
:100BF0002883D7CF2091930030919400232B41F488
:100C000020916C0030916D003093940020939300FC
:100C100020916A0030916B002115310541F42DB708
:100C20003EB740916E0050916F00241B350BE09150
:100C30009300F0919400E217F307A0F42E1B3F0BF2
:100C40002817390778F0AC014E5F5F4F241735073E
:100C500048F04E0F5F1F5093940040939300819390
:100C600091939FCFF0E0E0E09CCFCF93DF9300978C
:100C7000E9F0FC01329713821282A0919500B091A5
:100C80009600ED0130E020E01097A1F42081318141
:100C9000820F931F209193003091940028173907F9
:100CA00009F061C0F0939400E0939300DF91CF913D
:100CB0000895EA01CE17DF07E8F54A815B819E01BE
:100CC00041155105B1F7E901FB83EA834991599137
:100CD000C40FD51FEC17FD0761F480819181029646
:100CE000840F951FE90199838883828193819B8377
:100CF0008A83F0E0E0E012968D919C911397009723
:100D0000B9F52D913C911197CD010296820F931F59
:100D100020919300309194002817390739F63097C5
:100D200051F51092960010929500B0939400A09304
:100D30009300BCCFD383C28340815181840F951F20
:100D4000C817D90761F44E5F5F4F88819981480FBA
:100D5000591F518340838A819B819383828321150C
:100D6000310509F0B0CFF0939600E09395009ECF47
:100D7000FD01DC01C0CF13821282D7CFDC0101C09C
:100D80006D9341505040E0F7089510E0CFE1D0E07E
:100D900003C0FE01C8DE2196C032D107D1F7F89416
:020DA000FFCF83
:100DA2000000780001000078000100009700800038
:00000001FF
